{
  "_format": "hh-sol-artifact-1",
  "contractName": "ConsentManager",
  "sourceName": "contracts/ConsentManager.sol",
  "abi": [
    {
      "anonymous": false,
      "inputs": [
        {
          "indexed": true,
          "internalType": "bytes32",
          "name": "consentId",
          "type": "bytes32"
        },
        {
          "indexed": false,
          "internalType": "uint256",
          "name": "expiryDate",
          "type": "uint256"
        }
      ],
      "name": "ConsentApproved",
      "type": "event"
    },
    {
      "anonymous": false,
      "inputs": [
        {
          "indexed": true,
          "internalType": "bytes32",
          "name": "consentId",
          "type": "bytes32"
        },
        {
          "indexed": true,
          "internalType": "address",
          "name": "company",
          "type": "address"
        },
        {
          "indexed": true,
          "internalType": "address",
          "name": "student",
          "type": "address"
        },
        {
          "indexed": false,
          "internalType": "string",
          "name": "companyName",
          "type": "string"
        }
      ],
      "name": "ConsentRequested",
      "type": "event"
    },
    {
      "anonymous": false,
      "inputs": [
        {
          "indexed": true,
          "internalType": "bytes32",
          "name": "consentId",
          "type": "bytes32"
        }
      ],
      "name": "ConsentRevoked",
      "type": "event"
    },
    {
      "inputs": [
        {
          "internalType": "bytes32",
          "name": "consentId",
          "type": "bytes32"
        },
        {
          "internalType": "uint256",
          "name": "durationDays",
          "type": "uint256"
        }
      ],
      "name": "approveConsent",
      "outputs": [],
      "stateMutability": "nonpayable",
      "type": "function"
    },
    {
      "inputs": [
        {
          "internalType": "address",
          "name": "",
          "type": "address"
        },
        {
          "internalType": "uint256",
          "name": "",
          "type": "uint256"
        }
      ],
      "name": "companyConsents",
      "outputs": [
        {
          "internalType": "bytes32",
          "name": "",
          "type": "bytes32"
        }
      ],
      "stateMutability": "view",
      "type": "function"
    },
    {
      "inputs": [
        {
          "internalType": "bytes32",
          "name": "",
          "type": "bytes32"
        }
      ],
      "name": "consents",
      "outputs": [
        {
          "internalType": "address",
          "name": "company",
          "type": "address"
        },
        {
          "internalType": "address",
          "name": "student",
          "type": "address"
        },
        {
          "internalType": "bool",
          "name": "isApproved",
          "type": "bool"
        },
        {
          "internalType": "uint256",
          "name": "expiryDate",
          "type": "uint256"
        },
        {
          "internalType": "bool",
          "name": "isActive",
          "type": "bool"
        },
        {
          "internalType": "uint256",
          "name": "requestedDate",
          "type": "uint256"
        },
        {
          "internalType": "string",
          "name": "companyName",
          "type": "string"
        }
      ],
      "stateMutability": "view",
      "type": "function"
    },
    {
      "inputs": [
        {
          "internalType": "address",
          "name": "company",
          "type": "address"
        }
      ],
      "name": "getCompanyConsents",
      "outputs": [
        {
          "internalType": "bytes32[]",
          "name": "",
          "type": "bytes32[]"
        }
      ],
      "stateMutability": "view",
      "type": "function"
    },
    {
      "inputs": [
        {
          "internalType": "bytes32",
          "name": "consentId",
          "type": "bytes32"
        }
      ],
      "name": "getConsentDetails",
      "outputs": [
        {
          "components": [
            {
              "internalType": "address",
              "name": "company",
              "type": "address"
            },
            {
              "internalType": "address",
              "name": "student",
              "type": "address"
            },
            {
              "internalType": "bool",
              "name": "isApproved",
              "type": "bool"
            },
            {
              "internalType": "uint256",
              "name": "expiryDate",
              "type": "uint256"
            },
            {
              "internalType": "bool",
              "name": "isActive",
              "type": "bool"
            },
            {
              "internalType": "uint256",
              "name": "requestedDate",
              "type": "uint256"
            },
            {
              "internalType": "string",
              "name": "companyName",
              "type": "string"
            }
          ],
          "internalType": "struct ConsentManager.ConsentRequest",
          "name": "",
          "type": "tuple"
        }
      ],
      "stateMutability": "view",
      "type": "function"
    },
    {
      "inputs": [
        {
          "internalType": "address",
          "name": "student",
          "type": "address"
        }
      ],
      "name": "getStudentConsents",
      "outputs": [
        {
          "internalType": "bytes32[]",
          "name": "",
          "type": "bytes32[]"
        }
      ],
      "stateMutability": "view",
      "type": "function"
    },
    {
      "inputs": [
        {
          "internalType": "address",
          "name": "company",
          "type": "address"
        },
        {
          "internalType": "address",
          "name": "student",
          "type": "address"
        }
      ],
      "name": "hasAccess",
      "outputs": [
        {
          "internalType": "bool",
          "name": "",
          "type": "bool"
        }
      ],
      "stateMutability": "view",
      "type": "function"
    },
    {
      "inputs": [
        {
          "internalType": "address",
          "name": "student",
          "type": "address"
        },
        {
          "internalType": "string",
          "name": "companyName",
          "type": "string"
        }
      ],
      "name": "requestConsent",
      "outputs": [
        {
          "internalType": "bytes32",
          "name": "",
          "type": "bytes32"
        }
      ],
      "stateMutability": "nonpayable",
      "type": "function"
    },
    {
      "inputs": [
        {
          "internalType": "bytes32",
          "name": "consentId",
          "type": "bytes32"
        }
      ],
      "name": "revokeConsent",
      "outputs": [],
      "stateMutability": "nonpayable",
      "type": "function"
    },
    {
      "inputs": [
        {
          "internalType": "address",
          "name": "",
          "type": "address"
        },
        {
          "internalType": "uint256",
          "name": "",
          "type": "uint256"
        }
      ],
      "name": "studentConsents",
      "outputs": [
        {
          "internalType": "bytes32",
          "name": "",
          "type": "bytes32"
        }
      ],
      "stateMutability": "view",
      "type": "function"
    }
  ],
  "bytecode": "0x608060405234801561001057600080fd5b50611141806100206000396000f3fe608060405234801561001057600080fd5b506004361061009e5760003560e01c80635d9d4f69116100665780635d9d4f69146101335780636c813daf146101465780638f1fb09b14610167578063b3d8ccbd1461017a578063e8fb5d88146101a057600080fd5b806307a0315d146100a35780631709ef07146100b857806318737dd3146100e05780633ef3a2cd146101005780634c6bb80314610120575b600080fd5b6100b66100b1366004610c41565b6101b3565b005b6100cb6100c6366004610c76565b6102ae565b60405190151581526020015b60405180910390f35b6100f36100ee366004610c41565b6104de565b6040516100d79190610cef565b61011361010e366004610d5f565b610640565b6040516100d79190610d81565b61011361012e366004610d5f565b6106ac565b6100b6610141366004610dc5565b610716565b610159610154366004610dfd565b6108de565b6040519081526020016100d7565b610159610175366004610ebf565b610b1b565b61018d610188366004610c41565b610b4c565b6040516100d79796959493929190610ee9565b6101596101ae366004610ebf565b610c25565b600081815260208190526040902060018101546001600160a01b0316331461021d5760405162461bcd60e51b8152602060048201526018602482015277139bdd081e5bdd5c8818dbdb9cd95b9d081c995c5d595cdd60421b60448201526064015b60405180910390fd5b600381015460ff166102645760405162461bcd60e51b815260206004820152601060248201526f416c726561647920696e61637469766560801b6044820152606401610214565b60038101805460ff1916905560018101805460ff60a01b1916905560405182907f1ea893b704d41fc8ac0534da58fcbe5ecb13345d1de49869de886dc273aadd4890600090a25050565b6001600160a01b03811660009081526001602090815260408083208054825181850281018501909352808352849383018282801561030b57602002820191906000526020600020905b8154815260200190600101908083116102f7575b5050505050905060005b81518110156104d157600080600084848151811061033557610335610f40565b6020908102919091018101518252818101929092526040908101600020815160e08101835281546001600160a01b039081168252600183015490811694820194909452600160a01b90930460ff90811615159284019290925260028101546060840152600381015490911615156080830152600481015460a083015260058101805460c0840191906103c690610f56565b80601f01602080910402602001604051908101604052809291908181526020018280546103f290610f56565b801561043f5780601f106104145761010080835404028352916020019161043f565b820191906000526020600020905b81548152906001019060200180831161042257829003601f168201915b5050505050815250509050856001600160a01b031681600001516001600160a01b03161480156104845750846001600160a01b031681602001516001600160a01b0316145b8015610491575080604001515b801561049e575080608001515b80156104ad5750428160600151115b156104be57600193505050506104d8565b50806104c981610fa6565b915050610315565b5060009150505b92915050565b6105346040518060e0016040528060006001600160a01b0316815260200160006001600160a01b031681526020016000151581526020016000815260200160001515815260200160008152602001606081525090565b60008281526020818152604091829020825160e08101845281546001600160a01b03908116825260018301549081169382019390935260ff600160a01b909304831615159381019390935260028101546060840152600381015490911615156080830152600481015460a083015260058101805460c0840191906105b790610f56565b80601f01602080910402602001604051908101604052809291908181526020018280546105e390610f56565b80156106305780601f1061060557610100808354040283529160200191610630565b820191906000526020600020905b81548152906001019060200180831161061357829003601f168201915b5050505050815250509050919050565b6001600160a01b0381166000908152600260209081526040918290208054835181840281018401909452808452606093928301828280156106a057602002820191906000526020600020905b81548152602001906001019080831161068c575b50505050509050919050565b6001600160a01b0381166000908152600160209081526040918290208054835181840281018401909452808452606093928301828280156106a0576020028201919060005260206000209081548152602001906001019080831161068c5750505050509050919050565b600082815260208190526040902060018101546001600160a01b0316331461077b5760405162461bcd60e51b8152602060048201526018602482015277139bdd081e5bdd5c8818dbdb9cd95b9d081c995c5d595cdd60421b6044820152606401610214565b600381015460ff166107c45760405162461bcd60e51b8152602060048201526012602482015271436f6e73656e74206e6f742061637469766560701b6044820152606401610214565b6001810154600160a01b900460ff16156108135760405162461bcd60e51b815260206004820152601060248201526f105b1c9958591e48185c1c1c9bdd995960821b6044820152606401610214565b600082118015610825575061016d8211155b6108715760405162461bcd60e51b815260206004820152601b60248201527f4475726174696f6e206d75737420626520312d333635206461797300000000006044820152606401610214565b60018101805460ff60a01b1916600160a01b1790556108938262015180610fbf565b61089d9042610fd6565b6002820181905560405190815283907ffa80a56033578841d82dff1cf922fd3e04c0399ef7969feb52b55e064f3d4e8f9060200160405180910390a2505050565b60006001600160a01b0383166109365760405162461bcd60e51b815260206004820152601760248201527f496e76616c69642073747564656e7420616464726573730000000000000000006044820152606401610214565b600082511161097f5760405162461bcd60e51b815260206004820152601560248201527410dbdb5c185b9e481b985b59481c995c5d5a5c9959605a1b6044820152606401610214565b6040516bffffffffffffffffffffffff1933606090811b8216602084015285901b16603482015242604882015260009060680160408051601f19818403018152828252805160209182012060e0840183523384526001600160a01b03888116858401908152600086860181815260608801828152600160808a018181524260a08c0190815260c08c018f815289875299869052999094208a5181549088166001600160a01b03199091161781559451908501805493511515600160a01b026001600160a81b031990941691909616179190911790935591516002820155905160038201805491151560ff199092169190911790559251600484015590519093506005820190610a8e9082611038565b5050506001600160a01b03841660008181526001602081815260408084208054808501825590855282852001869055338085526002835281852080549485018155855291909320909101849055905183907f215503a4e5da911126e1a17de0ddd8a7fc105e48338f2e5c0c985ae7c442957d90610b0c9088906110f8565b60405180910390a49392505050565b60026020528160005260406000208181548110610b3757600080fd5b90600052602060002001600091509150505481565b6000602081905290815260409020805460018201546002830154600384015460048501546005860180546001600160a01b039687169796861696600160a01b90960460ff908116969416939190610ba290610f56565b80601f0160208091040260200160405190810160405280929190818152602001828054610bce90610f56565b8015610c1b5780601f10610bf057610100808354040283529160200191610c1b565b820191906000526020600020905b815481529060010190602001808311610bfe57829003601f168201915b5050505050905087565b60016020528160005260406000208181548110610b3757600080fd5b600060208284031215610c5357600080fd5b5035919050565b80356001600160a01b0381168114610c7157600080fd5b919050565b60008060408385031215610c8957600080fd5b610c9283610c5a565b9150610ca060208401610c5a565b90509250929050565b6000815180845260005b81811015610ccf57602081850181015186830182015201610cb3565b506000602082860101526020601f19601f83011685010191505092915050565b60208152600060018060a01b0380845116602084015280602085015116604084015250604083015115156060830152606083015160808301526080830151151560a083015260a083015160c083015260c083015160e080840152610d57610100840182610ca9565b949350505050565b600060208284031215610d7157600080fd5b610d7a82610c5a565b9392505050565b6020808252825182820181905260009190848201906040850190845b81811015610db957835183529284019291840191600101610d9d565b50909695505050505050565b60008060408385031215610dd857600080fd5b50508035926020909101359150565b634e487b7160e01b600052604160045260246000fd5b60008060408385031215610e1057600080fd5b610e1983610c5a565b9150602083013567ffffffffffffffff80821115610e3657600080fd5b818501915085601f830112610e4a57600080fd5b813581811115610e5c57610e5c610de7565b604051601f8201601f19908116603f01168101908382118183101715610e8457610e84610de7565b81604052828152886020848701011115610e9d57600080fd5b8260208601602083013760006020848301015280955050505050509250929050565b60008060408385031215610ed257600080fd5b610edb83610c5a565b946020939093013593505050565b6001600160a01b03888116825287166020820152851515604082015260608101859052831515608082015260a0810183905260e060c08201819052600090610f3390830184610ca9565b9998505050505050505050565b634e487b7160e01b600052603260045260246000fd5b600181811c90821680610f6a57607f821691505b602082108103610f8a57634e487b7160e01b600052602260045260246000fd5b50919050565b634e487b7160e01b600052601160045260246000fd5b600060018201610fb857610fb8610f90565b5060010190565b80820281158282048414176104d8576104d8610f90565b808201808211156104d8576104d8610f90565b601f82111561103357600081815260208120601f850160051c810160208610156110105750805b601f850160051c820191505b8181101561102f5782815560010161101c565b5050505b505050565b815167ffffffffffffffff81111561105257611052610de7565b611066816110608454610f56565b84610fe9565b602080601f83116001811461109b57600084156110835750858301515b600019600386901b1c1916600185901b17855561102f565b600085815260208120601f198616915b828110156110ca578886015182559484019460019091019084016110ab565b50858210156110e85787850151600019600388901b60f8161c191681555b5050505050600190811b01905550565b602081526000610d7a6020830184610ca956fea2646970667358221220ec2c4c3b204ea49d6c26fc5872b584be91e6ec84eb06cb977b2cf0554bc1ce2f64736f6c63430008140033",
  "linkReferences": {},
  "deployedLinkReferences": {}
}