{
  "_format": "hh-sol-artifact-1",
  "contractName": "AcademicCredentialSBT",
  "sourceName": "contracts/AcademicCredentialSBT.sol",
  "abi": [
    {
      "inputs": [
        {
          "internalType": "address",
          "name": "_registryAddress",
          "type": "address"
        }
      ],
      "stateMutability": "nonpayable",
      "type": "constructor"
    },
    {
      "inputs": [
        {
          "internalType": "address",
          "name": "sender",
          "type": "address"
        },
        {
          "internalType": "uint256",
          "name": "tokenId",
          "type": "uint256"
        },
        {
          "internalType": "address",
          "name": "owner",
          "type": "address"
        }
      ],
      "name": "ERC721IncorrectOwner",
      "type": "error"
    },
    {
      "inputs": [
        {
          "internalType": "address",
          "name": "operator",
          "type": "address"
        },
        {
          "internalType": "uint256",
          "name": "tokenId",
          "type": "uint256"
        }
      ],
      "name": "ERC721InsufficientApproval",
      "type": "error"
    },
    {
      "inputs": [
        {
          "internalType": "address",
          "name": "approver",
          "type": "address"
        }
      ],
      "name": "ERC721InvalidApprover",
      "type": "error"
    },
    {
      "inputs": [
        {
          "internalType": "address",
          "name": "operator",
          "type": "address"
        }
      ],
      "name": "ERC721InvalidOperator",
      "type": "error"
    },
    {
      "inputs": [
        {
          "internalType": "address",
          "name": "owner",
          "type": "address"
        }
      ],
      "name": "ERC721InvalidOwner",
      "type": "error"
    },
    {
      "inputs": [
        {
          "internalType": "address",
          "name": "receiver",
          "type": "address"
        }
      ],
      "name": "ERC721InvalidReceiver",
      "type": "error"
    },
    {
      "inputs": [
        {
          "internalType": "address",
          "name": "sender",
          "type": "address"
        }
      ],
      "name": "ERC721InvalidSender",
      "type": "error"
    },
    {
      "inputs": [
        {
          "internalType": "uint256",
          "name": "tokenId",
          "type": "uint256"
        }
      ],
      "name": "ERC721NonexistentToken",
      "type": "error"
    },
    {
      "inputs": [
        {
          "internalType": "address",
          "name": "owner",
          "type": "address"
        }
      ],
      "name": "OwnableInvalidOwner",
      "type": "error"
    },
    {
      "inputs": [
        {
          "internalType": "address",
          "name": "account",
          "type": "address"
        }
      ],
      "name": "OwnableUnauthorizedAccount",
      "type": "error"
    },
    {
      "anonymous": false,
      "inputs": [
        {
          "indexed": true,
          "internalType": "address",
          "name": "owner",
          "type": "address"
        },
        {
          "indexed": true,
          "internalType": "address",
          "name": "approved",
          "type": "address"
        },
        {
          "indexed": true,
          "internalType": "uint256",
          "name": "tokenId",
          "type": "uint256"
        }
      ],
      "name": "Approval",
      "type": "event"
    },
    {
      "anonymous": false,
      "inputs": [
        {
          "indexed": true,
          "internalType": "address",
          "name": "owner",
          "type": "address"
        },
        {
          "indexed": true,
          "internalType": "address",
          "name": "operator",
          "type": "address"
        },
        {
          "indexed": false,
          "internalType": "bool",
          "name": "approved",
          "type": "bool"
        }
      ],
      "name": "ApprovalForAll",
      "type": "event"
    },
    {
      "anonymous": false,
      "inputs": [
        {
          "indexed": true,
          "internalType": "uint256",
          "name": "tokenId",
          "type": "uint256"
        },
        {
          "indexed": true,
          "internalType": "address",
          "name": "student",
          "type": "address"
        },
        {
          "indexed": true,
          "internalType": "address",
          "name": "university",
          "type": "address"
        },
        {
          "indexed": false,
          "internalType": "string",
          "name": "metadataURI",
          "type": "string"
        }
      ],
      "name": "CredentialIssued",
      "type": "event"
    },
    {
      "anonymous": false,
      "inputs": [
        {
          "indexed": true,
          "internalType": "uint256",
          "name": "tokenId",
          "type": "uint256"
        },
        {
          "indexed": false,
          "internalType": "address",
          "name": "revokedBy",
          "type": "address"
        }
      ],
      "name": "CredentialRevoked",
      "type": "event"
    },
    {
      "anonymous": false,
      "inputs": [
        {
          "indexed": true,
          "internalType": "address",
          "name": "previousOwner",
          "type": "address"
        },
        {
          "indexed": true,
          "internalType": "address",
          "name": "newOwner",
          "type": "address"
        }
      ],
      "name": "OwnershipTransferred",
      "type": "event"
    },
    {
      "anonymous": false,
      "inputs": [
        {
          "indexed": true,
          "internalType": "address",
          "name": "from",
          "type": "address"
        },
        {
          "indexed": true,
          "internalType": "address",
          "name": "to",
          "type": "address"
        },
        {
          "indexed": true,
          "internalType": "uint256",
          "name": "tokenId",
          "type": "uint256"
        }
      ],
      "name": "Transfer",
      "type": "event"
    },
    {
      "inputs": [
        {
          "internalType": "address",
          "name": "to",
          "type": "address"
        },
        {
          "internalType": "uint256",
          "name": "tokenId",
          "type": "uint256"
        }
      ],
      "name": "approve",
      "outputs": [],
      "stateMutability": "nonpayable",
      "type": "function"
    },
    {
      "inputs": [
        {
          "internalType": "address",
          "name": "owner",
          "type": "address"
        }
      ],
      "name": "balanceOf",
      "outputs": [
        {
          "internalType": "uint256",
          "name": "",
          "type": "uint256"
        }
      ],
      "stateMutability": "view",
      "type": "function"
    },
    {
      "inputs": [
        {
          "internalType": "uint256",
          "name": "",
          "type": "uint256"
        }
      ],
      "name": "credentials",
      "outputs": [
        {
          "internalType": "uint256",
          "name": "tokenId",
          "type": "uint256"
        },
        {
          "internalType": "address",
          "name": "student",
          "type": "address"
        },
        {
          "internalType": "address",
          "name": "university",
          "type": "address"
        },
        {
          "internalType": "string",
          "name": "metadataURI",
          "type": "string"
        },
        {
          "internalType": "uint256",
          "name": "issuedDate",
          "type": "uint256"
        },
        {
          "internalType": "bool",
          "name": "isRevoked",
          "type": "bool"
        }
      ],
      "stateMutability": "view",
      "type": "function"
    },
    {
      "inputs": [
        {
          "internalType": "uint256",
          "name": "tokenId",
          "type": "uint256"
        }
      ],
      "name": "getApproved",
      "outputs": [
        {
          "internalType": "address",
          "name": "",
          "type": "address"
        }
      ],
      "stateMutability": "view",
      "type": "function"
    },
    {
      "inputs": [
        {
          "internalType": "uint256",
          "name": "tokenId",
          "type": "uint256"
        }
      ],
      "name": "getCredential",
      "outputs": [
        {
          "components": [
            {
              "internalType": "uint256",
              "name": "tokenId",
              "type": "uint256"
            },
            {
              "internalType": "address",
              "name": "student",
              "type": "address"
            },
            {
              "internalType": "address",
              "name": "university",
              "type": "address"
            },
            {
              "internalType": "string",
              "name": "metadataURI",
              "type": "string"
            },
            {
              "internalType": "uint256",
              "name": "issuedDate",
              "type": "uint256"
            },
            {
              "internalType": "bool",
              "name": "isRevoked",
              "type": "bool"
            }
          ],
          "internalType": "struct AcademicCredentialSBT.Credential",
          "name": "",
          "type": "tuple"
        }
      ],
      "stateMutability": "view",
      "type": "function"
    },
    {
      "inputs": [
        {
          "internalType": "address",
          "name": "student",
          "type": "address"
        }
      ],
      "name": "getStudentCredentials",
      "outputs": [
        {
          "internalType": "uint256[]",
          "name": "",
          "type": "uint256[]"
        }
      ],
      "stateMutability": "view",
      "type": "function"
    },
    {
      "inputs": [
        {
          "internalType": "address",
          "name": "owner",
          "type": "address"
        },
        {
          "internalType": "address",
          "name": "operator",
          "type": "address"
        }
      ],
      "name": "isApprovedForAll",
      "outputs": [
        {
          "internalType": "bool",
          "name": "",
          "type": "bool"
        }
      ],
      "stateMutability": "view",
      "type": "function"
    },
    {
      "inputs": [
        {
          "internalType": "address",
          "name": "studentWallet",
          "type": "address"
        },
        {
          "internalType": "string",
          "name": "metadataURI",
          "type": "string"
        }
      ],
      "name": "mintCredential",
      "outputs": [
        {
          "internalType": "uint256",
          "name": "",
          "type": "uint256"
        }
      ],
      "stateMutability": "nonpayable",
      "type": "function"
    },
    {
      "inputs": [],
      "name": "name",
      "outputs": [
        {
          "internalType": "string",
          "name": "",
          "type": "string"
        }
      ],
      "stateMutability": "view",
      "type": "function"
    },
    {
      "inputs": [],
      "name": "owner",
      "outputs": [
        {
          "internalType": "address",
          "name": "",
          "type": "address"
        }
      ],
      "stateMutability": "view",
      "type": "function"
    },
    {
      "inputs": [
        {
          "internalType": "uint256",
          "name": "tokenId",
          "type": "uint256"
        }
      ],
      "name": "ownerOf",
      "outputs": [
        {
          "internalType": "address",
          "name": "",
          "type": "address"
        }
      ],
      "stateMutability": "view",
      "type": "function"
    },
    {
      "inputs": [],
      "name": "renounceOwnership",
      "outputs": [],
      "stateMutability": "nonpayable",
      "type": "function"
    },
    {
      "inputs": [
        {
          "internalType": "uint256",
          "name": "tokenId",
          "type": "uint256"
        }
      ],
      "name": "revokeCredential",
      "outputs": [],
      "stateMutability": "nonpayable",
      "type": "function"
    },
    {
      "inputs": [
        {
          "internalType": "address",
          "name": "from",
          "type": "address"
        },
        {
          "internalType": "address",
          "name": "to",
          "type": "address"
        },
        {
          "internalType": "uint256",
          "name": "tokenId",
          "type": "uint256"
        }
      ],
      "name": "safeTransferFrom",
      "outputs": [],
      "stateMutability": "nonpayable",
      "type": "function"
    },
    {
      "inputs": [
        {
          "internalType": "address",
          "name": "",
          "type": "address"
        },
        {
          "internalType": "address",
          "name": "",
          "type": "address"
        },
        {
          "internalType": "uint256",
          "name": "",
          "type": "uint256"
        },
        {
          "internalType": "bytes",
          "name": "",
          "type": "bytes"
        }
      ],
      "name": "safeTransferFrom",
      "outputs": [],
      "stateMutability": "pure",
      "type": "function"
    },
    {
      "inputs": [
        {
          "internalType": "address",
          "name": "operator",
          "type": "address"
        },
        {
          "internalType": "bool",
          "name": "approved",
          "type": "bool"
        }
      ],
      "name": "setApprovalForAll",
      "outputs": [],
      "stateMutability": "nonpayable",
      "type": "function"
    },
    {
      "inputs": [
        {
          "internalType": "address",
          "name": "",
          "type": "address"
        },
        {
          "internalType": "uint256",
          "name": "",
          "type": "uint256"
        }
      ],
      "name": "studentCredentials",
      "outputs": [
        {
          "internalType": "uint256",
          "name": "",
          "type": "uint256"
        }
      ],
      "stateMutability": "view",
      "type": "function"
    },
    {
      "inputs": [
        {
          "internalType": "bytes4",
          "name": "interfaceId",
          "type": "bytes4"
        }
      ],
      "name": "supportsInterface",
      "outputs": [
        {
          "internalType": "bool",
          "name": "",
          "type": "bool"
        }
      ],
      "stateMutability": "view",
      "type": "function"
    },
    {
      "inputs": [],
      "name": "symbol",
      "outputs": [
        {
          "internalType": "string",
          "name": "",
          "type": "string"
        }
      ],
      "stateMutability": "view",
      "type": "function"
    },
    {
      "inputs": [
        {
          "internalType": "uint256",
          "name": "tokenId",
          "type": "uint256"
        }
      ],
      "name": "tokenURI",
      "outputs": [
        {
          "internalType": "string",
          "name": "",
          "type": "string"
        }
      ],
      "stateMutability": "view",
      "type": "function"
    },
    {
      "inputs": [],
      "name": "totalSupply",
      "outputs": [
        {
          "internalType": "uint256",
          "name": "",
          "type": "uint256"
        }
      ],
      "stateMutability": "view",
      "type": "function"
    },
    {
      "inputs": [
        {
          "internalType": "address",
          "name": "",
          "type": "address"
        },
        {
          "internalType": "address",
          "name": "",
          "type": "address"
        },
        {
          "internalType": "uint256",
          "name": "",
          "type": "uint256"
        }
      ],
      "name": "transferFrom",
      "outputs": [],
      "stateMutability": "pure",
      "type": "function"
    },
    {
      "inputs": [
        {
          "internalType": "address",
          "name": "newOwner",
          "type": "address"
        }
      ],
      "name": "transferOwnership",
      "outputs": [],
      "stateMutability": "nonpayable",
      "type": "function"
    },
    {
      "inputs": [],
      "name": "universityRegistry",
      "outputs": [
        {
          "internalType": "contract UniversityRegistry",
          "name": "",
          "type": "address"
        }
      ],
      "stateMutability": "view",
      "type": "function"
    }
  ],
  "bytecode": "0x60806040523480156200001157600080fd5b5060405162001cd038038062001cd08339810160408190526200003491620001b8565b336040518060400160405280601381526020017f41636164656d69632043726564656e7469616c00000000000000000000000000815250604051806040016040528060058152602001641050d4915160da1b81525081600090816200009a91906200028f565b506001620000a982826200028f565b5050506001600160a01b038116620000dc57604051631e4fbdf760e01b8152600060048201526024015b60405180910390fd5b620000e78162000166565b506001600160a01b038116620001405760405162461bcd60e51b815260206004820152601860248201527f496e76616c6964207265676973747279206164647265737300000000000000006044820152606401620000d3565b600780546001600160a01b0319166001600160a01b03929092169190911790556200035b565b600680546001600160a01b038381166001600160a01b0319831681179093556040519116919082907f8be0079c531659141344cd1fd0a4f28419497f9722a3daafe3b4186f6b6457e090600090a35050565b600060208284031215620001cb57600080fd5b81516001600160a01b0381168114620001e357600080fd5b9392505050565b634e487b7160e01b600052604160045260246000fd5b600181811c908216806200021557607f821691505b6020821081036200023657634e487b7160e01b600052602260045260246000fd5b50919050565b601f8211156200028a57600081815260208120601f850160051c81016020861015620002655750805b601f850160051c820191505b81811015620002865782815560010162000271565b5050505b505050565b81516001600160401b03811115620002ab57620002ab620001ea565b620002c381620002bc845462000200565b846200023c565b602080601f831160018114620002fb5760008415620002e25750858301515b600019600386901b1c1916600185901b17855562000286565b600085815260208120601f198616915b828110156200032c578886015182559484019460019091019084016200030b565b50858210156200034b5787850151600019600388901b60f8161c191681555b5050505050600190811b01905550565b611965806200036b6000396000f3fe608060405234801561001057600080fd5b50600436106101585760003560e01c80636352211e116100c3578063a22cb4651161007c578063a22cb465146102e9578063b88d4fde146102fc578063c87b56dd1461030a578063e0574e3f1461031d578063e985e9c514610342578063f2fde38b1461035557600080fd5b80636352211e1461028257806370a0823114610295578063715018a6146102a85780638da5cb5b146102b05780638dd18d2d146102c157806395d89b41146102e157600080fd5b806318160ddd1161011557806318160ddd1461020e5780631b87278d14610216578063218cdc321461022957806323b872dd1461024957806336b1d37f1461025c57806342842e0e1461026f57600080fd5b806301ffc9a71461015d57806304f903301461018557806306fdde03146101a6578063081812fc146101bb578063095ea7b3146101e65780630dd308cd146101fb575b600080fd5b61017061016b366004611342565b610368565b60405190151581526020015b60405180910390f35b61019861019336600461140e565b6103ba565b60405190815260200161017c565b6101ae610662565b60405161017c91906114b6565b6101ce6101c93660046114c9565b6106f4565b6040516001600160a01b03909116815260200161017c565b6101f96101f43660046114e2565b61071d565b005b6101986102093660046114e2565b61072c565b600a54610198565b6101f96102243660046114c9565b61075d565b61023c61023736600461150c565b610893565b60405161017c9190611527565b6101f961025736600461156b565b6108ff565b6007546101ce906001600160a01b031681565b6101f961027d36600461156b565b610947565b6101ce6102903660046114c9565b610967565b6101986102a336600461150c565b610972565b6101f96109ba565b6006546001600160a01b03166101ce565b6102d46102cf3660046114c9565b6109ce565b60405161017c91906115a7565b6101ae610af7565b6101f96102f736600461161f565b610b06565b6101f9610257366004611656565b6101ae6103183660046114c9565b610b11565b61033061032b3660046114c9565b610c02565b60405161017c969594939291906116d2565b61017061035036600461171e565b610cd1565b6101f961036336600461150c565b610cff565b60006001600160e01b031982166380ac58cd60e01b148061039957506001600160e01b03198216635b5e139f60e01b145b806103b457506301ffc9a760e01b6001600160e01b03198316145b92915050565b60075460405163b9209e3360e01b81523360048201526000916001600160a01b03169063b9209e3390602401602060405180830381865afa158015610403573d6000803e3d6000fd5b505050506040513d601f19601f820116820180604052508101906104279190611751565b6104785760405162461bcd60e51b815260206004820152601960248201527f4e6f74206120766572696669656420756e69766572736974790000000000000060448201526064015b60405180910390fd5b6001600160a01b0383166104ce5760405162461bcd60e51b815260206004820152601760248201527f496e76616c69642073747564656e742061646472657373000000000000000000604482015260640161046f565b600082511161051f5760405162461bcd60e51b815260206004820152601c60248201527f4d65746164617461205552492063616e6e6f7420626520656d70747900000000604482015260640161046f565b600a8054600091826105308361176e565b9190505590506105408482610d3d565b6040805160c0810182528281526001600160a01b0380871660208084019182523384860190815260608501898152426080870152600060a087018190528881526008909352959091208451815591516001830180549185166001600160a01b0319928316179055905160028301805491909416911617909155915190919060038201906105cd9082611815565b506080820151600482015560a0909101516005909101805460ff19169115159190911790556001600160a01b0384166000818152600960209081526040808320805460018101825590845291909220018390555133919083907fd1de861db6c309080253d2536a1767c11ee81a3fb2ab87b4e83aa298c2bcbc8d906106539088906114b6565b60405180910390a49392505050565b60606000805461067190611795565b80601f016020809104026020016040519081016040528092919081815260200182805461069d90611795565b80156106ea5780601f106106bf576101008083540402835291602001916106ea565b820191906000526020600020905b8154815290600101906020018083116106cd57829003601f168201915b5050505050905090565b60006106ff82610d57565b506000828152600460205260409020546001600160a01b03166103b4565b610728828233610d90565b5050565b6009602052816000526040600020818154811061074857600080fd5b90600052602060002001600091509150505481565b6000818152600860205260409020600201546001600160a01b031633148061079e5750336107936006546001600160a01b031690565b6001600160a01b0316145b6107ea5760405162461bcd60e51b815260206004820152601860248201527f4e6f7420617574686f72697a656420746f207265766f6b650000000000000000604482015260640161046f565b60008181526008602052604090206005015460ff161561083e5760405162461bcd60e51b815260206004820152600f60248201526e105b1c9958591e481c995d9bdad959608a1b604482015260640161046f565b600081815260086020908152604091829020600501805460ff19166001179055905133815282917f936526f4a3155895d9f01699716f2e0c548d726a24a1437e5ce92b3dacaad35b910160405180910390a250565b6001600160a01b0381166000908152600960209081526040918290208054835181840281018401909452808452606093928301828280156108f357602002820191906000526020600020905b8154815260200190600101908083116108df575b50505050509050919050565b60405162461bcd60e51b815260206004820152601f60248201527f536f756c626f756e643a205472616e73666572206e6f7420616c6c6f77656400604482015260640161046f565b610962838383604051806020016040528060008152506108ff565b505050565b60006103b482610d57565b60006001600160a01b03821661099e576040516322718ad960e21b81526000600482015260240161046f565b506001600160a01b031660009081526003602052604090205490565b6109c2610d9d565b6109cc6000610dca565b565b6040805160c080820183526000808352602080840182905283850182905260608085018190526080850183905260a085018390528683526008825291859020855193840186528054845260018101546001600160a01b03908116928501929092526002810154909116948301949094526003840180549394929391840191610a5590611795565b80601f0160208091040260200160405190810160405280929190818152602001828054610a8190611795565b8015610ace5780601f10610aa357610100808354040283529160200191610ace565b820191906000526020600020905b815481529060010190602001808311610ab157829003601f168201915b50505091835250506004820154602082015260059091015460ff16151560409091015292915050565b60606001805461067190611795565b610728338383610e1c565b60606000610b1e83610967565b6001600160a01b031603610b6b5760405162461bcd60e51b8152602060048201526014602482015273151bdad95b88191bd95cc81b9bdd08195e1a5cdd60621b604482015260640161046f565b60008281526008602052604090206003018054610b8790611795565b80601f0160208091040260200160405190810160405280929190818152602001828054610bb390611795565b80156108f35780601f10610bd5576101008083540402835291602001916108f3565b820191906000526020600020905b815481529060010190602001808311610be35750939695505050505050565b600860205260009081526040902080546001820154600283015460038401805493946001600160a01b03938416949390921692610c3e90611795565b80601f0160208091040260200160405190810160405280929190818152602001828054610c6a90611795565b8015610cb75780601f10610c8c57610100808354040283529160200191610cb7565b820191906000526020600020905b815481529060010190602001808311610c9a57829003601f168201915b50505050600483015460059093015491929160ff16905086565b6001600160a01b03918216600090815260056020908152604080832093909416825291909152205460ff1690565b610d07610d9d565b6001600160a01b038116610d3157604051631e4fbdf760e01b81526000600482015260240161046f565b610d3a81610dca565b50565b610728828260405180602001604052806000815250610ebb565b6000818152600260205260408120546001600160a01b0316806103b457604051637e27328960e01b81526004810184905260240161046f565b6109628383836001610ed3565b6006546001600160a01b031633146109cc5760405163118cdaa760e01b815233600482015260240161046f565b600680546001600160a01b038381166001600160a01b0319831681179093556040519116919082907f8be0079c531659141344cd1fd0a4f28419497f9722a3daafe3b4186f6b6457e090600090a35050565b6001600160a01b038216610e4e57604051630b61174360e31b81526001600160a01b038316600482015260240161046f565b6001600160a01b03838116600081815260056020908152604080832094871680845294825291829020805460ff191686151590811790915591519182527f17307eab39ab6107e8899845ad3d59bd9653f200f220920489ca2b5937696c31910160405180910390a3505050565b610ec58383610fd9565b61096233600085858561103e565b8080610ee757506001600160a01b03821615155b15610fa9576000610ef784610d57565b90506001600160a01b03831615801590610f235750826001600160a01b0316816001600160a01b031614155b8015610f365750610f348184610cd1565b155b15610f5f5760405163a9fbf51f60e01b81526001600160a01b038416600482015260240161046f565b8115610fa75783856001600160a01b0316826001600160a01b03167f8c5be1e5ebec7d5bd14f71427d1e84f3dd0314c0f7b2291e5b200ac8c7c3b92560405160405180910390a45b505b5050600090815260046020526040902080546001600160a01b0319166001600160a01b0392909216919091179055565b6001600160a01b03821661100357604051633250574960e11b81526000600482015260240161046f565b600061101183836000611169565b90506001600160a01b03811615610962576040516339e3563760e11b81526000600482015260240161046f565b6001600160a01b0383163b1561116257604051630a85bd0160e11b81526001600160a01b0384169063150b7a02906110809088908890879087906004016118d5565b6020604051808303816000875af19250505080156110bb575060408051601f3d908101601f191682019092526110b891810190611912565b60015b611124573d8080156110e9576040519150601f19603f3d011682016040523d82523d6000602084013e6110ee565b606091505b50805160000361111c57604051633250574960e11b81526001600160a01b038516600482015260240161046f565b805160208201fd5b6001600160e01b03198116630a85bd0160e11b1461116057604051633250574960e11b81526001600160a01b038516600482015260240161046f565b505b5050505050565b6000828152600260205260408120546001600160a01b039081169083161561119657611196818486611262565b6001600160a01b038116156111d4576111b3600085600080610ed3565b6001600160a01b038116600090815260036020526040902080546000190190555b6001600160a01b03851615611203576001600160a01b0385166000908152600360205260409020805460010190555b60008481526002602052604080822080546001600160a01b0319166001600160a01b0389811691821790925591518793918516917fddf252ad1be2c89b69c2b068fc378daa952ba7f163c4a11628f55a4df523b3ef91a4949350505050565b61126d8383836112c6565b610962576001600160a01b03831661129b57604051637e27328960e01b81526004810182905260240161046f565b60405163177e802f60e01b81526001600160a01b03831660048201526024810182905260440161046f565b60006001600160a01b038316158015906113245750826001600160a01b0316846001600160a01b0316148061130057506113008484610cd1565b8061132457506000828152600460205260409020546001600160a01b038481169116145b949350505050565b6001600160e01b031981168114610d3a57600080fd5b60006020828403121561135457600080fd5b813561135f8161132c565b9392505050565b80356001600160a01b038116811461137d57600080fd5b919050565b634e487b7160e01b600052604160045260246000fd5b600067ffffffffffffffff808411156113b3576113b3611382565b604051601f8501601f19908116603f011681019082821181831017156113db576113db611382565b816040528093508581528686860111156113f457600080fd5b858560208301376000602087830101525050509392505050565b6000806040838503121561142157600080fd5b61142a83611366565b9150602083013567ffffffffffffffff81111561144657600080fd5b8301601f8101851361145757600080fd5b61146685823560208401611398565b9150509250929050565b6000815180845260005b818110156114965760208185018101518683018201520161147a565b506000602082860101526020601f19601f83011685010191505092915050565b60208152600061135f6020830184611470565b6000602082840312156114db57600080fd5b5035919050565b600080604083850312156114f557600080fd5b6114fe83611366565b946020939093013593505050565b60006020828403121561151e57600080fd5b61135f82611366565b6020808252825182820181905260009190848201906040850190845b8181101561155f57835183529284019291840191600101611543565b50909695505050505050565b60008060006060848603121561158057600080fd5b61158984611366565b925061159760208501611366565b9150604084013590509250925092565b60208152815160208201526000602083015160018060a01b0380821660408501528060408601511660608501525050606083015160c060808401526115ef60e0840182611470565b9050608084015160a084015260a0840151151560c08401528091505092915050565b8015158114610d3a57600080fd5b6000806040838503121561163257600080fd5b61163b83611366565b9150602083013561164b81611611565b809150509250929050565b6000806000806080858703121561166c57600080fd5b61167585611366565b935061168360208601611366565b925060408501359150606085013567ffffffffffffffff8111156116a657600080fd5b8501601f810187136116b757600080fd5b6116c687823560208401611398565b91505092959194509250565b8681526001600160a01b0386811660208301528516604082015260c06060820181905260009061170490830186611470565b60808301949094525090151560a090910152949350505050565b6000806040838503121561173157600080fd5b61173a83611366565b915061174860208401611366565b90509250929050565b60006020828403121561176357600080fd5b815161135f81611611565b60006001820161178e57634e487b7160e01b600052601160045260246000fd5b5060010190565b600181811c908216806117a957607f821691505b6020821081036117c957634e487b7160e01b600052602260045260246000fd5b50919050565b601f82111561096257600081815260208120601f850160051c810160208610156117f65750805b601f850160051c820191505b8181101561116057828155600101611802565b815167ffffffffffffffff81111561182f5761182f611382565b6118438161183d8454611795565b846117cf565b602080601f83116001811461187857600084156118605750858301515b600019600386901b1c1916600185901b178555611160565b600085815260208120601f198616915b828110156118a757888601518255948401946001909101908401611888565b50858210156118c55787850151600019600388901b60f8161c191681555b5050505050600190811b01905550565b6001600160a01b038581168252841660208201526040810183905260806060820181905260009061190890830184611470565b9695505050505050565b60006020828403121561192457600080fd5b815161135f8161132c56fea2646970667358221220df9577ed8b9bdde7359a6ba1322b469a2f1ae4c8c90aa8e6bd1ed14579d8589264736f6c63430008140033",
  "linkReferences": {},
  "deployedLinkReferences": {}
}