{
  "_format": "hh-sol-artifact-1",
  "contractName": "UniversityRegistry",
  "sourceName": "contracts/UniversityRegistry.sol",
  "abi": [
    {
      "inputs": [],
      "stateMutability": "nonpayable",
      "type": "constructor"
    },
    {
      "inputs": [
        {
          "internalType": "address",
          "name": "owner",
          "type": "address"
        }
      ],
      "name": "OwnableInvalidOwner",
      "type": "error"
    },
    {
      "inputs": [
        {
          "internalType": "address",
          "name": "account",
          "type": "address"
        }
      ],
      "name": "OwnableUnauthorizedAccount",
      "type": "error"
    },
    {
      "anonymous": false,
      "inputs": [
        {
          "indexed": true,
          "internalType": "address",
          "name": "previousOwner",
          "type": "address"
        },
        {
          "indexed": true,
          "internalType": "address",
          "name": "newOwner",
          "type": "address"
        }
      ],
      "name": "OwnershipTransferred",
      "type": "event"
    },
    {
      "anonymous": false,
      "inputs": [
        {
          "indexed": true,
          "internalType": "address",
          "name": "wallet",
          "type": "address"
        }
      ],
      "name": "UniversityDeactivated",
      "type": "event"
    },
    {
      "anonymous": false,
      "inputs": [
        {
          "indexed": true,
          "internalType": "address",
          "name": "wallet",
          "type": "address"
        }
      ],
      "name": "UniversityReactivated",
      "type": "event"
    },
    {
      "anonymous": false,
      "inputs": [
        {
          "indexed": true,
          "internalType": "address",
          "name": "wallet",
          "type": "address"
        },
        {
          "indexed": false,
          "internalType": "string",
          "name": "name",
          "type": "string"
        }
      ],
      "name": "UniversityRegistered",
      "type": "event"
    },
    {
      "inputs": [
        {
          "internalType": "address",
          "name": "_wallet",
          "type": "address"
        }
      ],
      "name": "deactivateUniversity",
      "outputs": [],
      "stateMutability": "nonpayable",
      "type": "function"
    },
    {
      "inputs": [],
      "name": "getUniversityCount",
      "outputs": [
        {
          "internalType": "uint256",
          "name": "",
          "type": "uint256"
        }
      ],
      "stateMutability": "view",
      "type": "function"
    },
    {
      "inputs": [
        {
          "internalType": "address",
          "name": "_wallet",
          "type": "address"
        }
      ],
      "name": "getUniversityDetails",
      "outputs": [
        {
          "internalType": "string",
          "name": "name",
          "type": "string"
        },
        {
          "internalType": "bool",
          "name": "active",
          "type": "bool"
        },
        {
          "internalType": "uint256",
          "name": "registeredDate",
          "type": "uint256"
        }
      ],
      "stateMutability": "view",
      "type": "function"
    },
    {
      "inputs": [
        {
          "internalType": "address",
          "name": "_wallet",
          "type": "address"
        }
      ],
      "name": "isVerified",
      "outputs": [
        {
          "internalType": "bool",
          "name": "",
          "type": "bool"
        }
      ],
      "stateMutability": "view",
      "type": "function"
    },
    {
      "inputs": [],
      "name": "owner",
      "outputs": [
        {
          "internalType": "address",
          "name": "",
          "type": "address"
        }
      ],
      "stateMutability": "view",
      "type": "function"
    },
    {
      "inputs": [
        {
          "internalType": "address",
          "name": "_wallet",
          "type": "address"
        }
      ],
      "name": "reactivateUniversity",
      "outputs": [],
      "stateMutability": "nonpayable",
      "type": "function"
    },
    {
      "inputs": [
        {
          "internalType": "address",
          "name": "_wallet",
          "type": "address"
        },
        {
          "internalType": "string",
          "name": "_name",
          "type": "string"
        }
      ],
      "name": "registerUniversity",
      "outputs": [],
      "stateMutability": "nonpayable",
      "type": "function"
    },
    {
      "inputs": [],
      "name": "renounceOwnership",
      "outputs": [],
      "stateMutability": "nonpayable",
      "type": "function"
    },
    {
      "inputs": [
        {
          "internalType": "address",
          "name": "newOwner",
          "type": "address"
        }
      ],
      "name": "transferOwnership",
      "outputs": [],
      "stateMutability": "nonpayable",
      "type": "function"
    },
    {
      "inputs": [
        {
          "internalType": "address",
          "name": "",
          "type": "address"
        }
      ],
      "name": "universities",
      "outputs": [
        {
          "internalType": "string",
          "name": "name",
          "type": "string"
        },
        {
          "internalType": "bool",
          "name": "isVerified",
          "type": "bool"
        },
        {
          "internalType": "bool",
          "name": "isActive",
          "type": "bool"
        },
        {
          "internalType": "uint256",
          "name": "registeredDate",
          "type": "uint256"
        }
      ],
      "stateMutability": "view",
      "type": "function"
    },
    {
      "inputs": [
        {
          "internalType": "uint256",
          "name": "",
          "type": "uint256"
        }
      ],
      "name": "universityList",
      "outputs": [
        {
          "internalType": "address",
          "name": "",
          "type": "address"
        }
      ],
      "stateMutability": "view",
      "type": "function"
    }
  ],
  "bytecode": "0x608060405234801561001057600080fd5b50338061003757604051631e4fbdf760e01b81526000600482015260240160405180910390fd5b61004081610046565b50610096565b600080546001600160a01b038381166001600160a01b0319831681178455604051919092169283917f8be0079c531659141344cd1fd0a4f28419497f9722a3daafe3b4186f6b6457e09190a35050565b610c56806100a56000396000f3fe608060405234801561001057600080fd5b50600436106100a95760003560e01c8063b9209e3311610071578063b9209e3314610128578063ba3c6a081461014b578063e1b100501461015e578063f099556014610171578063f2fde38b14610194578063fc60bf0a146101a757600080fd5b80633132e034146100ae57806337c19dc2146100c4578063715018a6146100e65780638da5cb5b146100f0578063ace3d59514610115575b600080fd5b6002546040519081526020015b60405180910390f35b6100d76100d2366004610917565b6101ba565b6040516100bb9392919061097f565b6100ee6102b9565b005b6000546001600160a01b03165b6040516001600160a01b0390911681526020016100bb565b6100ee6101233660046109ba565b6102cd565b61013b610136366004610917565b6104da565b60405190151581526020016100bb565b6100ee610159366004610917565b61052c565b6100fd61016c366004610a7c565b610644565b61018461017f366004610917565b61066e565b6040516100bb9493929190610a95565b6100ee6101a2366004610917565b610725565b6100ee6101b5366004610917565b610763565b6001600160a01b03811660009081526001602052604080822081516080810190925280546060939283928392829082906101f390610ac4565b80601f016020809104026020016040519081016040528092919081815260200182805461021f90610ac4565b801561026c5780601f106102415761010080835404028352916020019161026c565b820191906000526020600020905b81548152906001019060200180831161024f57829003601f168201915b5050509183525050600182015460ff808216151560208401526101009091041615156040808301919091526002909201546060918201528251918301519201519097919650945092505050565b6102c161087e565b6102cb60006108ab565b565b6102d561087e565b6001600160a01b0382166103225760405162461bcd60e51b815260206004820152600f60248201526e496e76616c6964206164647265737360881b60448201526064015b60405180910390fd5b6001600160a01b0382166000908152600160208190526040909120015460ff16156103845760405162461bcd60e51b8152602060048201526012602482015271105b1c9958591e481c9959da5cdd195c995960721b6044820152606401610319565b60008151116103cc5760405162461bcd60e51b81526020600482015260146024820152734e616d652063616e6e6f7420626520656d70747960601b6044820152606401610319565b60408051608081018252828152600160208083018290528284018290524260608401526001600160a01b038616600090815291905291909120815181906104139082610b4d565b5060208201516001828101805460408087015161ffff1990921694151561ff0019169490941761010091151591909102179055606090930151600292830155815492830182556000919091527f405787fa12a823e0f2b7631cc41b3ba8828b3321ca811111fa75cd3aa3bb5ace90910180546001600160a01b0319166001600160a01b03851690811790915590517f9e7aff20b8d74f44a6eab16e94b9ff91d18db8a3797b539571a31d90dc530d23906104ce908490610c0d565b60405180910390a25050565b6001600160a01b03811660009081526001602081905260408220015460ff16801561052657506001600160a01b03821660009081526001602081905260409091200154610100900460ff165b92915050565b61053461087e565b6001600160a01b0381166000908152600160208190526040909120015460ff166105915760405162461bcd60e51b815260206004820152600e60248201526d139bdd081c9959da5cdd195c995960921b6044820152606401610319565b6001600160a01b03811660009081526001602081905260409091200154610100900460ff166105f55760405162461bcd60e51b815260206004820152601060248201526f416c726561647920696e61637469766560801b6044820152606401610319565b6001600160a01b0381166000818152600160208190526040808320909101805461ff0019169055517f190876657aeb251835f605eec0c28996608f3125b5eafbf95517d50e4093de869190a250565b6002818154811061065457600080fd5b6000918252602090912001546001600160a01b0316905081565b60016020526000908152604090208054819061068990610ac4565b80601f01602080910402602001604051908101604052809291908181526020018280546106b590610ac4565b80156107025780601f106106d757610100808354040283529160200191610702565b820191906000526020600020905b8154815290600101906020018083116106e557829003601f168201915b505050506001830154600290930154919260ff8082169361010090920416915084565b61072d61087e565b6001600160a01b03811661075757604051631e4fbdf760e01b815260006004820152602401610319565b610760816108ab565b50565b61076b61087e565b6001600160a01b0381166000908152600160208190526040909120015460ff166107c85760405162461bcd60e51b815260206004820152600e60248201526d139bdd081c9959da5cdd195c995960921b6044820152606401610319565b6001600160a01b03811660009081526001602081905260409091200154610100900460ff161561082b5760405162461bcd60e51b815260206004820152600e60248201526d416c72656164792061637469766560901b6044820152606401610319565b6001600160a01b0381166000818152600160208190526040808320909101805461ff001916610100179055517f13eaa08fbc98ce90bb57a126059d9b6f2b0df46adbdbadb67d92cd8027f81dfe9190a250565b6000546001600160a01b031633146102cb5760405163118cdaa760e01b8152336004820152602401610319565b600080546001600160a01b038381166001600160a01b0319831681178455604051919092169283917f8be0079c531659141344cd1fd0a4f28419497f9722a3daafe3b4186f6b6457e09190a35050565b80356001600160a01b038116811461091257600080fd5b919050565b60006020828403121561092957600080fd5b610932826108fb565b9392505050565b6000815180845260005b8181101561095f57602081850181015186830182015201610943565b506000602082860101526020601f19601f83011685010191505092915050565b6060815260006109926060830186610939565b93151560208301525060400152919050565b634e487b7160e01b600052604160045260246000fd5b600080604083850312156109cd57600080fd5b6109d6836108fb565b9150602083013567ffffffffffffffff808211156109f357600080fd5b818501915085601f830112610a0757600080fd5b813581811115610a1957610a196109a4565b604051601f8201601f19908116603f01168101908382118183101715610a4157610a416109a4565b81604052828152886020848701011115610a5a57600080fd5b8260208601602083013760006020848301015280955050505050509250929050565b600060208284031215610a8e57600080fd5b5035919050565b608081526000610aa86080830187610939565b9415156020830152509115156040830152606090910152919050565b600181811c90821680610ad857607f821691505b602082108103610af857634e487b7160e01b600052602260045260246000fd5b50919050565b601f821115610b4857600081815260208120601f850160051c81016020861015610b255750805b601f850160051c820191505b81811015610b4457828155600101610b31565b5050505b505050565b815167ffffffffffffffff811115610b6757610b676109a4565b610b7b81610b758454610ac4565b84610afe565b602080601f831160018114610bb05760008415610b985750858301515b600019600386901b1c1916600185901b178555610b44565b600085815260208120601f198616915b82811015610bdf57888601518255948401946001909101908401610bc0565b5085821015610bfd5787850151600019600388901b60f8161c191681555b5050505050600190811b01905550565b602081526000610932602083018461093956fea26469706673582212208376ce9ab6a1597f3611796714d0511436d99386361ee2cdef625d4a3709260864736f6c63430008140033",
  "linkReferences": {},
  "deployedLinkReferences": {}
}